{
  "contractName": "Timelockwallet",
  "abi": [
    {
      "inputs": [
        {
          "internalType": "string",
          "name": "_name",
          "type": "string"
        },
        {
          "internalType": "string",
          "name": "_symbol",
          "type": "string"
        }
      ],
      "stateMutability": "nonpayable",
      "type": "constructor"
    },
    {
      "anonymous": false,
      "inputs": [
        {
          "indexed": true,
          "internalType": "address",
          "name": "owner",
          "type": "address"
        },
        {
          "indexed": true,
          "internalType": "address",
          "name": "spender",
          "type": "address"
        },
        {
          "indexed": false,
          "internalType": "uint256",
          "name": "value",
          "type": "uint256"
        }
      ],
      "name": "Approval",
      "type": "event"
    },
    {
      "anonymous": false,
      "inputs": [
        {
          "indexed": false,
          "internalType": "address",
          "name": "_token",
          "type": "address"
        },
        {
          "indexed": false,
          "internalType": "address",
          "name": "_account",
          "type": "address"
        },
        {
          "indexed": false,
          "internalType": "uint256",
          "name": "_amount",
          "type": "uint256"
        }
      ],
      "name": "Deposit",
      "type": "event"
    },
    {
      "anonymous": false,
      "inputs": [
        {
          "indexed": true,
          "internalType": "address",
          "name": "previousOwner",
          "type": "address"
        },
        {
          "indexed": true,
          "internalType": "address",
          "name": "newOwner",
          "type": "address"
        }
      ],
      "name": "OwnershipTransferred",
      "type": "event"
    },
    {
      "anonymous": false,
      "inputs": [
        {
          "indexed": false,
          "internalType": "address",
          "name": "_operator",
          "type": "address"
        },
        {
          "indexed": false,
          "internalType": "address",
          "name": "_token",
          "type": "address"
        },
        {
          "indexed": false,
          "internalType": "address",
          "name": "_account",
          "type": "address"
        },
        {
          "indexed": false,
          "internalType": "uint256",
          "name": "_amount",
          "type": "uint256"
        }
      ],
      "name": "RemoveLiquidity",
      "type": "event"
    },
    {
      "anonymous": false,
      "inputs": [
        {
          "indexed": true,
          "internalType": "address",
          "name": "from",
          "type": "address"
        },
        {
          "indexed": true,
          "internalType": "address",
          "name": "to",
          "type": "address"
        },
        {
          "indexed": false,
          "internalType": "uint256",
          "name": "value",
          "type": "uint256"
        }
      ],
      "name": "Transfer",
      "type": "event"
    },
    {
      "anonymous": false,
      "inputs": [
        {
          "indexed": false,
          "internalType": "address",
          "name": "_token",
          "type": "address"
        },
        {
          "indexed": false,
          "internalType": "address",
          "name": "_account",
          "type": "address"
        },
        {
          "indexed": false,
          "internalType": "uint256",
          "name": "_amount",
          "type": "uint256"
        }
      ],
      "name": "Withdraw",
      "type": "event"
    },
    {
      "inputs": [
        {
          "internalType": "address",
          "name": "owner",
          "type": "address"
        },
        {
          "internalType": "address",
          "name": "spender",
          "type": "address"
        }
      ],
      "name": "allowance",
      "outputs": [
        {
          "internalType": "uint256",
          "name": "",
          "type": "uint256"
        }
      ],
      "stateMutability": "view",
      "type": "function",
      "constant": true
    },
    {
      "inputs": [
        {
          "internalType": "address",
          "name": "spender",
          "type": "address"
        },
        {
          "internalType": "uint256",
          "name": "amount",
          "type": "uint256"
        }
      ],
      "name": "approve",
      "outputs": [
        {
          "internalType": "bool",
          "name": "",
          "type": "bool"
        }
      ],
      "stateMutability": "nonpayable",
      "type": "function"
    },
    {
      "inputs": [
        {
          "internalType": "uint256",
          "name": "",
          "type": "uint256"
        }
      ],
      "name": "availableTokenLists",
      "outputs": [
        {
          "internalType": "address",
          "name": "",
          "type": "address"
        }
      ],
      "stateMutability": "view",
      "type": "function",
      "constant": true
    },
    {
      "inputs": [
        {
          "internalType": "address",
          "name": "account",
          "type": "address"
        }
      ],
      "name": "balanceOf",
      "outputs": [
        {
          "internalType": "uint256",
          "name": "",
          "type": "uint256"
        }
      ],
      "stateMutability": "view",
      "type": "function",
      "constant": true
    },
    {
      "inputs": [],
      "name": "decimals",
      "outputs": [
        {
          "internalType": "uint8",
          "name": "",
          "type": "uint8"
        }
      ],
      "stateMutability": "view",
      "type": "function",
      "constant": true
    },
    {
      "inputs": [
        {
          "internalType": "address",
          "name": "spender",
          "type": "address"
        },
        {
          "internalType": "uint256",
          "name": "subtractedValue",
          "type": "uint256"
        }
      ],
      "name": "decreaseAllowance",
      "outputs": [
        {
          "internalType": "bool",
          "name": "",
          "type": "bool"
        }
      ],
      "stateMutability": "nonpayable",
      "type": "function"
    },
    {
      "inputs": [
        {
          "internalType": "address",
          "name": "spender",
          "type": "address"
        },
        {
          "internalType": "uint256",
          "name": "addedValue",
          "type": "uint256"
        }
      ],
      "name": "increaseAllowance",
      "outputs": [
        {
          "internalType": "bool",
          "name": "",
          "type": "bool"
        }
      ],
      "stateMutability": "nonpayable",
      "type": "function"
    },
    {
      "inputs": [],
      "name": "name",
      "outputs": [
        {
          "internalType": "string",
          "name": "",
          "type": "string"
        }
      ],
      "stateMutability": "view",
      "type": "function",
      "constant": true
    },
    {
      "inputs": [],
      "name": "owner",
      "outputs": [
        {
          "internalType": "address",
          "name": "",
          "type": "address"
        }
      ],
      "stateMutability": "view",
      "type": "function",
      "constant": true
    },
    {
      "inputs": [],
      "name": "renounceOwnership",
      "outputs": [],
      "stateMutability": "nonpayable",
      "type": "function"
    },
    {
      "inputs": [],
      "name": "symbol",
      "outputs": [
        {
          "internalType": "string",
          "name": "",
          "type": "string"
        }
      ],
      "stateMutability": "view",
      "type": "function",
      "constant": true
    },
    {
      "inputs": [],
      "name": "totalSupply",
      "outputs": [
        {
          "internalType": "uint256",
          "name": "",
          "type": "uint256"
        }
      ],
      "stateMutability": "view",
      "type": "function",
      "constant": true
    },
    {
      "inputs": [
        {
          "internalType": "address",
          "name": "to",
          "type": "address"
        },
        {
          "internalType": "uint256",
          "name": "amount",
          "type": "uint256"
        }
      ],
      "name": "transfer",
      "outputs": [
        {
          "internalType": "bool",
          "name": "",
          "type": "bool"
        }
      ],
      "stateMutability": "nonpayable",
      "type": "function"
    },
    {
      "inputs": [
        {
          "internalType": "address",
          "name": "from",
          "type": "address"
        },
        {
          "internalType": "address",
          "name": "to",
          "type": "address"
        },
        {
          "internalType": "uint256",
          "name": "amount",
          "type": "uint256"
        }
      ],
      "name": "transferFrom",
      "outputs": [
        {
          "internalType": "bool",
          "name": "",
          "type": "bool"
        }
      ],
      "stateMutability": "nonpayable",
      "type": "function"
    },
    {
      "inputs": [
        {
          "internalType": "address",
          "name": "newOwner",
          "type": "address"
        }
      ],
      "name": "transferOwnership",
      "outputs": [],
      "stateMutability": "nonpayable",
      "type": "function"
    },
    {
      "inputs": [],
      "name": "withdrawDuration",
      "outputs": [
        {
          "internalType": "uint256",
          "name": "",
          "type": "uint256"
        }
      ],
      "stateMutability": "view",
      "type": "function",
      "constant": true
    },
    {
      "inputs": [],
      "name": "withdrawLimitation",
      "outputs": [
        {
          "internalType": "uint256",
          "name": "",
          "type": "uint256"
        }
      ],
      "stateMutability": "view",
      "type": "function",
      "constant": true
    },
    {
      "inputs": [
        {
          "internalType": "address",
          "name": "",
          "type": "address"
        }
      ],
      "name": "withdrawListIndex",
      "outputs": [
        {
          "internalType": "uint256",
          "name": "",
          "type": "uint256"
        }
      ],
      "stateMutability": "view",
      "type": "function",
      "constant": true
    },
    {
      "inputs": [
        {
          "internalType": "address",
          "name": "",
          "type": "address"
        },
        {
          "internalType": "uint256",
          "name": "",
          "type": "uint256"
        }
      ],
      "name": "withdrawLists",
      "outputs": [
        {
          "internalType": "uint256",
          "name": "amount",
          "type": "uint256"
        },
        {
          "internalType": "uint256",
          "name": "createdAt",
          "type": "uint256"
        }
      ],
      "stateMutability": "view",
      "type": "function",
      "constant": true
    },
    {
      "inputs": [],
      "name": "getAllManager",
      "outputs": [
        {
          "internalType": "address[]",
          "name": "",
          "type": "address[]"
        }
      ],
      "stateMutability": "view",
      "type": "function",
      "constant": true
    },
    {
      "inputs": [
        {
          "internalType": "address",
          "name": "usraddress",
          "type": "address"
        },
        {
          "internalType": "bool",
          "name": "access",
          "type": "bool"
        }
      ],
      "name": "setManager",
      "outputs": [],
      "stateMutability": "nonpayable",
      "type": "function"
    },
    {
      "inputs": [
        {
          "internalType": "uint256",
          "name": "_withdrawDuration",
          "type": "uint256"
        }
      ],
      "name": "setWithdrawDuration",
      "outputs": [],
      "stateMutability": "nonpayable",
      "type": "function"
    },
    {
      "inputs": [
        {
          "internalType": "uint256",
          "name": "_withdrawLimitation",
          "type": "uint256"
        }
      ],
      "name": "setWithdrawLimitation",
      "outputs": [],
      "stateMutability": "nonpayable",
      "type": "function"
    },
    {
      "inputs": [
        {
          "internalType": "address",
          "name": "_token",
          "type": "address"
        },
        {
          "internalType": "address",
          "name": "_account",
          "type": "address"
        }
      ],
      "name": "removeLiquidity",
      "outputs": [],
      "stateMutability": "nonpayable",
      "type": "function"
    },
    {
      "inputs": [
        {
          "internalType": "address",
          "name": "_token",
          "type": "address"
        },
        {
          "internalType": "uint256",
          "name": "_amount",
          "type": "uint256"
        }
      ],
      "name": "deposit",
      "outputs": [],
      "stateMutability": "nonpayable",
      "type": "function"
    },
    {
      "inputs": [
        {
          "internalType": "address",
          "name": "_token",
          "type": "address"
        },
        {
          "internalType": "uint256",
          "name": "_amount",
          "type": "uint256"
        }
      ],
      "name": "withdraw",
      "outputs": [],
      "stateMutability": "nonpayable",
      "type": "function"
    },
    {
      "inputs": [
        {
          "internalType": "address",
          "name": "_account",
          "type": "address"
        }
      ],
      "name": "getRecentWithdrawLength",
      "outputs": [
        {
          "internalType": "uint256",
          "name": "",
          "type": "uint256"
        }
      ],
      "stateMutability": "view",
      "type": "function",
      "constant": true
    },
    {
      "inputs": [
        {
          "internalType": "address",
          "name": "_account",
          "type": "address"
        }
      ],
      "name": "getWithdrawLength",
      "outputs": [
        {
          "internalType": "uint256",
          "name": "",
          "type": "uint256"
        }
      ],
      "stateMutability": "view",
      "type": "function",
      "constant": true
    },
    {
      "inputs": [
        {
          "internalType": "address",
          "name": "_account",
          "type": "address"
        },
        {
          "internalType": "uint256",
          "name": "_index",
          "type": "uint256"
        }
      ],
      "name": "getWithdrawInfo",
      "outputs": [
        {
          "components": [
            {
              "internalType": "uint256",
              "name": "amount",
              "type": "uint256"
            },
            {
              "internalType": "uint256",
              "name": "createdAt",
              "type": "uint256"
            }
          ],
          "internalType": "struct Timelockwallet.WithdrawObj",
          "name": "",
          "type": "tuple"
        }
      ],
      "stateMutability": "view",
      "type": "function",
      "constant": true
    }
  ],
  "bytecode": "0x60806040523480156200001157600080fd5b5060405162003d4b38038062003d4b8339818101604052810190620000379190620005a6565b818181600390805190602001906200005192919062000359565b5080600490805190602001906200006a92919062000359565b5050506200008d620000816200028b60201b60201c565b6200029360201b60201c565b6201518060098190555068056bc75e2d63100000600a81905550600873e9e7cea3dedca5984780bafc599bd69add087d569080600181540180825580915050600190039060005260206000200160009091909190916101000a81548173ffffffffffffffffffffffffffffffffffffffff021916908373ffffffffffffffffffffffffffffffffffffffff16021790555060087355d398326f99059ff775485246999027b31979559080600181540180825580915050600190039060005260206000200160009091909190916101000a81548173ffffffffffffffffffffffffffffffffffffffff021916908373ffffffffffffffffffffffffffffffffffffffff1602179055506008738ac76a51cc950d9822d68b83fe1ad97b32cd580d9080600181540180825580915050600190039060005260206000200160009091909190916101000a81548173ffffffffffffffffffffffffffffffffffffffff021916908373ffffffffffffffffffffffffffffffffffffffff1602179055506008731af3f329e8be154074d8769d1ffa4ee058b1dbc39080600181540180825580915050600190039060005260206000200160009091909190916101000a81548173ffffffffffffffffffffffffffffffffffffffff021916908373ffffffffffffffffffffffffffffffffffffffff160217905550505062000690565b600033905090565b6000600560009054906101000a900473ffffffffffffffffffffffffffffffffffffffff16905081600560006101000a81548173ffffffffffffffffffffffffffffffffffffffff021916908373ffffffffffffffffffffffffffffffffffffffff1602179055508173ffffffffffffffffffffffffffffffffffffffff168173ffffffffffffffffffffffffffffffffffffffff167f8be0079c531659141344cd1fd0a4f28419497f9722a3daafe3b4186f6b6457e060405160405180910390a35050565b82805462000367906200065a565b90600052602060002090601f0160209004810192826200038b5760008555620003d7565b82601f10620003a657805160ff1916838001178555620003d7565b82800160010185558215620003d7579182015b82811115620003d6578251825591602001919060010190620003b9565b5b509050620003e69190620003ea565b5090565b5b8082111562000405576000816000905550600101620003eb565b5090565b6000604051905090565b600080fd5b600080fd5b600080fd5b600080fd5b6000601f19601f8301169050919050565b7f4e487b7100000000000000000000000000000000000000000000000000000000600052604160045260246000fd5b620004728262000427565b810181811067ffffffffffffffff8211171562000494576200049362000438565b5b80604052505050565b6000620004a962000409565b9050620004b7828262000467565b919050565b600067ffffffffffffffff821115620004da57620004d962000438565b5b620004e58262000427565b9050602081019050919050565b60005b8381101562000512578082015181840152602081019050620004f5565b8381111562000522576000848401525b50505050565b60006200053f6200053984620004bc565b6200049d565b9050828152602081018484840111156200055e576200055d62000422565b5b6200056b848285620004f2565b509392505050565b600082601f8301126200058b576200058a6200041d565b5b81516200059d84826020860162000528565b91505092915050565b60008060408385031215620005c057620005bf62000413565b5b600083015167ffffffffffffffff811115620005e157620005e062000418565b5b620005ef8582860162000573565b925050602083015167ffffffffffffffff81111562000613576200061262000418565b5b620006218582860162000573565b9150509250929050565b7f4e487b7100000000000000000000000000000000000000000000000000000000600052602260045260246000fd5b600060028204905060018216806200067357607f821691505b602082108114156200068a57620006896200062b565b5b50919050565b6136ab80620006a06000396000f3fe608060405234801561001057600080fd5b50600436106101cf5760003560e01c8063633879e2116101045780639cf38f7c116100a2578063a9059cbb11610071578063a9059cbb1461056b578063dd62ed3e1461059b578063f2fde38b146105cb578063f3fef3a3146105e7576101cf565b80639cf38f7c146104d3578063a457c2d7146104ef578063a5e90eee1461051f578063a8ca52ab1461053b576101cf565b80638da5cb5b116100de5780638da5cb5b146104495780638f9bcd4414610467578063944a71ba1461048557806395d89b41146104b5576101cf565b8063633879e2146103df57806370a082311461040f578063715018a61461043f576101cf565b8063373b99bd1161017157806347e7ef241161014b57806347e7ef2414610357578063551b7702146103735780635a73d5ed146103915780635b665599146103af576101cf565b8063373b99bd146102da578063395093511461030b5780633c900d7a1461033b576101cf565b806318160ddd116101ad57806318160ddd1461025257806323b872dd146102705780632bac5723146102a0578063313ce567146102bc576101cf565b806305966ca3146101d457806306fdde0314610204578063095ea7b314610222575b600080fd5b6101ee60048036038101906101e991906124d0565b610603565b6040516101fb9190612516565b60405180910390f35b61020c6106f3565b60405161021991906125ca565b60405180910390f35b61023c60048036038101906102379190612618565b610785565b6040516102499190612673565b60405180910390f35b61025a6107a8565b6040516102679190612516565b60405180910390f35b61028a6004803603810190610285919061268e565b6107b2565b6040516102979190612673565b60405180910390f35b6102ba60048036038101906102b591906126e1565b6107e1565b005b6102c46107f3565b6040516102d1919061272a565b60405180910390f35b6102f460048036038101906102ef9190612618565b6107fc565b604051610302929190612745565b60405180910390f35b61032560048036038101906103209190612618565b61082d565b6040516103329190612673565b60405180910390f35b610355600480360381019061035091906126e1565b610864565b005b610371600480360381019061036c9190612618565b610876565b005b61037b610934565b6040516103889190612516565b60405180910390f35b61039961093a565b6040516103a6919061282c565b60405180910390f35b6103c960048036038101906103c49190612618565b6109c8565b6040516103d6919061288c565b60405180910390f35b6103f960048036038101906103f491906124d0565b610a47565b6040516104069190612516565b60405180910390f35b610429600480360381019061042491906124d0565b610a90565b6040516104369190612516565b60405180910390f35b610447610ad8565b005b610451610aec565b60405161045e91906128b6565b60405180910390f35b61046f610b16565b60405161047c9190612516565b60405180910390f35b61049f600480360381019061049a91906126e1565b610b1c565b6040516104ac91906128b6565b60405180910390f35b6104bd610b5b565b6040516104ca91906125ca565b60405180910390f35b6104ed60048036038101906104e891906128d1565b610bed565b005b61050960048036038101906105049190612618565b610d28565b6040516105169190612673565b60405180910390f35b6105396004803603810190610534919061293d565b610d9f565b005b610555600480360381019061055091906124d0565b611174565b6040516105629190612516565b60405180910390f35b61058560048036038101906105809190612618565b61118c565b6040516105929190612673565b60405180910390f35b6105b560048036038101906105b091906128d1565b6111af565b6040516105c29190612516565b60405180910390f35b6105e560048036038101906105e091906124d0565b611236565b005b61060160048036038101906105fc9190612618565b6112ba565b005b600080429050600080600c60003373ffffffffffffffffffffffffffffffffffffffff1673ffffffffffffffffffffffffffffffffffffffff16815260200190815260200160002054905060008190505b60008111156106e75783600954600b60008973ffffffffffffffffffffffffffffffffffffffff1673ffffffffffffffffffffffffffffffffffffffff1681526020019081526020016000206000848152602001908152602001600020600101546106bf91906129ac565b11156106d45782806106d090612a02565b9350505b80806106df90612a4b565b915050610654565b50819350505050919050565b60606003805461070290612aa4565b80601f016020809104026020016040519081016040528092919081815260200182805461072e90612aa4565b801561077b5780601f106107505761010080835404028352916020019161077b565b820191906000526020600020905b81548152906001019060200180831161075e57829003601f168201915b5050505050905090565b6000806107906116b3565b905061079d8185856116bb565b600191505092915050565b6000600254905090565b6000806107bd6116b3565b90506107ca858285611886565b6107d5858585611912565b60019150509392505050565b6107e9611b8a565b8060098190555050565b60006012905090565b600b602052816000526040600020602052806000526040600020600091509150508060000154908060010154905082565b6000806108386116b3565b905061085981858561084a85896111af565b61085491906129ac565b6116bb565b600191505092915050565b61086c611b8a565b80600a8190555050565b61087f82611c08565b6108be576040517f08c379a00000000000000000000000000000000000000000000000000000000081526004016108b590612b48565b60405180910390fd5b6108eb3330838573ffffffffffffffffffffffffffffffffffffffff16611cba909392919063ffffffff16565b6108f53382611d43565b7f5548c837ab068cf56a2c2479df0882a4922fd203edb7517321831d95078c5f6282338360405161092893929190612b68565b60405180910390a15050565b60095481565b606060078054806020026020016040519081016040528092919081815260200182805480156109be57602002820191906000526020600020905b8160009054906101000a900473ffffffffffffffffffffffffffffffffffffffff1673ffffffffffffffffffffffffffffffffffffffff1681526020019060010190808311610974575b5050505050905090565b6109d0612453565b600b60008473ffffffffffffffffffffffffffffffffffffffff1673ffffffffffffffffffffffffffffffffffffffff168152602001908152602001600020600083815260200190815260200160002060405180604001604052908160008201548152602001600182015481525050905092915050565b6000600c60008373ffffffffffffffffffffffffffffffffffffffff1673ffffffffffffffffffffffffffffffffffffffff168152602001908152602001600020549050919050565b60008060008373ffffffffffffffffffffffffffffffffffffffff1673ffffffffffffffffffffffffffffffffffffffff168152602001908152602001600020549050919050565b610ae0611b8a565b610aea6000611e9a565b565b6000600560009054906101000a900473ffffffffffffffffffffffffffffffffffffffff16905090565b600a5481565b60088181548110610b2c57600080fd5b906000526020600020016000915054906101000a900473ffffffffffffffffffffffffffffffffffffffff1681565b606060048054610b6a90612aa4565b80601f0160208091040260200160405190810160405280929190818152602001828054610b9690612aa4565b8015610be35780601f10610bb857610100808354040283529160200191610be3565b820191906000526020600020905b815481529060010190602001808311610bc657829003601f168201915b5050505050905090565b610bf5611b8a565b610bfe82611c08565b610c3d576040517f08c379a0000000000000000000000000000000000000000000000000000000008152600401610c3490612b48565b60405180910390fd5b60008273ffffffffffffffffffffffffffffffffffffffff166370a08231306040518263ffffffff1660e01b8152600401610c7891906128b6565b602060405180830381865afa158015610c95573d6000803e3d6000fd5b505050506040513d601f19601f82011682018060405250810190610cb99190612bb4565b9050610ce682828573ffffffffffffffffffffffffffffffffffffffff16611f609092919063ffffffff16565b7f2a1a4e62bda5b4987b9aa2f23ddbb29e434808f7a717452a3226bc15243c927733848484604051610d1b9493929190612be1565b60405180910390a1505050565b600080610d336116b3565b90506000610d4182866111af565b905083811015610d86576040517f08c379a0000000000000000000000000000000000000000000000000000000008152600401610d7d90612c98565b60405180910390fd5b610d9382868684036116bb565b60019250505092915050565b610da7611b8a565b600115158115151415610f0057600660008373ffffffffffffffffffffffffffffffffffffffff1673ffffffffffffffffffffffffffffffffffffffff16815260200190815260200160002060010160009054906101000a900460ff16610efb5760006007805490509050604051806040016040528082815260200160011515815250600660008573ffffffffffffffffffffffffffffffffffffffff1673ffffffffffffffffffffffffffffffffffffffff1681526020019081526020016000206000820151816000015560208201518160010160006101000a81548160ff0219169083151502179055509050506007839080600181540180825580915050600190039060005260206000200160009091909190916101000a81548173ffffffffffffffffffffffffffffffffffffffff021916908373ffffffffffffffffffffffffffffffffffffffff160217905550505b611170565b600660008373ffffffffffffffffffffffffffffffffffffffff1673ffffffffffffffffffffffffffffffffffffffff16815260200190815260200160002060010160009054906101000a900460ff161561116f57600060076001600780549050610f6b9190612cb8565b81548110610f7c57610f7b612cec565b5b9060005260206000200160009054906101000a900473ffffffffffffffffffffffffffffffffffffffff1690506007600660008373ffffffffffffffffffffffffffffffffffffffff1673ffffffffffffffffffffffffffffffffffffffff1681526020019081526020016000206000015481548110610fff57610ffe612cec565b5b9060005260206000200160009054906101000a900473ffffffffffffffffffffffffffffffffffffffff166007600660008673ffffffffffffffffffffffffffffffffffffffff1673ffffffffffffffffffffffffffffffffffffffff16815260200190815260200160002060000154815481106110805761107f612cec565b5b9060005260206000200160006101000a81548173ffffffffffffffffffffffffffffffffffffffff021916908373ffffffffffffffffffffffffffffffffffffffff16021790555060078054806110da576110d9612d1b565b5b6001900381819060005260206000200160006101000a81549073ffffffffffffffffffffffffffffffffffffffff02191690559055600660008473ffffffffffffffffffffffffffffffffffffffff1673ffffffffffffffffffffffffffffffffffffffff1681526020019081526020016000206000808201600090556001820160006101000a81549060ff02191690555050505b5b5050565b600c6020528060005260406000206000915090505481565b6000806111976116b3565b90506111a4818585611912565b600191505092915050565b6000600160008473ffffffffffffffffffffffffffffffffffffffff1673ffffffffffffffffffffffffffffffffffffffff16815260200190815260200160002060008373ffffffffffffffffffffffffffffffffffffffff1673ffffffffffffffffffffffffffffffffffffffff16815260200190815260200160002054905092915050565b61123e611b8a565b600073ffffffffffffffffffffffffffffffffffffffff168173ffffffffffffffffffffffffffffffffffffffff1614156112ae576040517f08c379a00000000000000000000000000000000000000000000000000000000081526004016112a590612dbc565b60405180910390fd5b6112b781611e9a565b50565b600660003373ffffffffffffffffffffffffffffffffffffffff1673ffffffffffffffffffffffffffffffffffffffff16815260200190815260200160002060010160009054906101000a900460ff16611349576040517f08c379a000000000000000000000000000000000000000000000000000000000815260040161134090612e28565b60405180910390fd5b61135282611c08565b611391576040517f08c379a000000000000000000000000000000000000000000000000000000000815260040161138890612b48565b60405180910390fd5b6000804290506000600c60003373ffffffffffffffffffffffffffffffffffffffff1673ffffffffffffffffffffffffffffffffffffffff16815260200190815260200160002054905060008190505b60008111156114c75782600954600b60003373ffffffffffffffffffffffffffffffffffffffff1673ffffffffffffffffffffffffffffffffffffffff16815260200190815260200160002060008481526020019081526020016000206001015461144c91906129ac565b11156114b457600b60003373ffffffffffffffffffffffffffffffffffffffff1673ffffffffffffffffffffffffffffffffffffffff168152602001908152602001600020600082815260200190815260200160002060000154846114b191906129ac565b93505b80806114bf90612a4b565b9150506113e1565b50600a54831080156114e65750600a5484846114e391906129ac565b11155b611525576040517f08c379a000000000000000000000000000000000000000000000000000000000815260040161151c90612eba565b60405180910390fd5b61152f3385611fe6565b61155a33858773ffffffffffffffffffffffffffffffffffffffff16611f609092919063ffffffff16565b604051806040016040528085815260200183815250600b60003373ffffffffffffffffffffffffffffffffffffffff1673ffffffffffffffffffffffffffffffffffffffff16815260200190815260200160002060006001846115bd91906129ac565b815260200190815260200160002060008201518160000155602082015181600101559050506001600c60003373ffffffffffffffffffffffffffffffffffffffff1673ffffffffffffffffffffffffffffffffffffffff1681526020019081526020016000205461162e91906129ac565b600c60003373ffffffffffffffffffffffffffffffffffffffff1673ffffffffffffffffffffffffffffffffffffffff168152602001908152602001600020819055507f9b1bfa7fa9ee420a16e124f794c35ac9f90472acc99140eb2f6447c714cad8eb8533866040516116a493929190612b68565b60405180910390a15050505050565b600033905090565b600073ffffffffffffffffffffffffffffffffffffffff168373ffffffffffffffffffffffffffffffffffffffff16141561172b576040517f08c379a000000000000000000000000000000000000000000000000000000000815260040161172290612f4c565b60405180910390fd5b600073ffffffffffffffffffffffffffffffffffffffff168273ffffffffffffffffffffffffffffffffffffffff16141561179b576040517f08c379a000000000000000000000000000000000000000000000000000000000815260040161179290612fde565b60405180910390fd5b80600160008573ffffffffffffffffffffffffffffffffffffffff1673ffffffffffffffffffffffffffffffffffffffff16815260200190815260200160002060008473ffffffffffffffffffffffffffffffffffffffff1673ffffffffffffffffffffffffffffffffffffffff168152602001908152602001600020819055508173ffffffffffffffffffffffffffffffffffffffff168373ffffffffffffffffffffffffffffffffffffffff167f8c5be1e5ebec7d5bd14f71427d1e84f3dd0314c0f7b2291e5b200ac8c7c3b925836040516118799190612516565b60405180910390a3505050565b600061189284846111af565b90507fffffffffffffffffffffffffffffffffffffffffffffffffffffffffffffffff811461190c57818110156118fe576040517f08c379a00000000000000000000000000000000000000000000000000000000081526004016118f59061304a565b60405180910390fd5b61190b84848484036116bb565b5b50505050565b600073ffffffffffffffffffffffffffffffffffffffff168373ffffffffffffffffffffffffffffffffffffffff161415611982576040517f08c379a0000000000000000000000000000000000000000000000000000000008152600401611979906130dc565b60405180910390fd5b600073ffffffffffffffffffffffffffffffffffffffff168273ffffffffffffffffffffffffffffffffffffffff1614156119f2576040517f08c379a00000000000000000000000000000000000000000000000000000000081526004016119e99061316e565b60405180910390fd5b6119fd8383836121b4565b60008060008573ffffffffffffffffffffffffffffffffffffffff1673ffffffffffffffffffffffffffffffffffffffff16815260200190815260200160002054905081811015611a83576040517f08c379a0000000000000000000000000000000000000000000000000000000008152600401611a7a90613200565b60405180910390fd5b8181036000808673ffffffffffffffffffffffffffffffffffffffff1673ffffffffffffffffffffffffffffffffffffffff16815260200190815260200160002081905550816000808573ffffffffffffffffffffffffffffffffffffffff1673ffffffffffffffffffffffffffffffffffffffff168152602001908152602001600020600082825401925050819055508273ffffffffffffffffffffffffffffffffffffffff168473ffffffffffffffffffffffffffffffffffffffff167fddf252ad1be2c89b69c2b068fc378daa952ba7f163c4a11628f55a4df523b3ef84604051611b719190612516565b60405180910390a3611b848484846121b9565b50505050565b611b926116b3565b73ffffffffffffffffffffffffffffffffffffffff16611bb0610aec565b73ffffffffffffffffffffffffffffffffffffffff1614611c06576040517f08c379a0000000000000000000000000000000000000000000000000000000008152600401611bfd9061326c565b60405180910390fd5b565b600080600880549050905060005b81811015611cae578373ffffffffffffffffffffffffffffffffffffffff1660088281548110611c4957611c48612cec565b5b9060005260206000200160009054906101000a900473ffffffffffffffffffffffffffffffffffffffff1673ffffffffffffffffffffffffffffffffffffffff161415611c9b57600192505050611cb5565b8080611ca690612a02565b915050611c16565b5060009150505b919050565b611d3d846323b872dd60e01b858585604051602401611cdb93929190612b68565b604051602081830303815290604052907bffffffffffffffffffffffffffffffffffffffffffffffffffffffff19166020820180517bffffffffffffffffffffffffffffffffffffffffffffffffffffffff83818316178352505050506121be565b50505050565b600073ffffffffffffffffffffffffffffffffffffffff168273ffffffffffffffffffffffffffffffffffffffff161415611db3576040517f08c379a0000000000000000000000000000000000000000000000000000000008152600401611daa906132d8565b60405180910390fd5b611dbf600083836121b4565b8060026000828254611dd191906129ac565b92505081905550806000808473ffffffffffffffffffffffffffffffffffffffff1673ffffffffffffffffffffffffffffffffffffffff168152602001908152602001600020600082825401925050819055508173ffffffffffffffffffffffffffffffffffffffff16600073ffffffffffffffffffffffffffffffffffffffff167fddf252ad1be2c89b69c2b068fc378daa952ba7f163c4a11628f55a4df523b3ef83604051611e829190612516565b60405180910390a3611e96600083836121b9565b5050565b6000600560009054906101000a900473ffffffffffffffffffffffffffffffffffffffff16905081600560006101000a81548173ffffffffffffffffffffffffffffffffffffffff021916908373ffffffffffffffffffffffffffffffffffffffff1602179055508173ffffffffffffffffffffffffffffffffffffffff168173ffffffffffffffffffffffffffffffffffffffff167f8be0079c531659141344cd1fd0a4f28419497f9722a3daafe3b4186f6b6457e060405160405180910390a35050565b611fe18363a9059cbb60e01b8484604051602401611f7f9291906132f8565b604051602081830303815290604052907bffffffffffffffffffffffffffffffffffffffffffffffffffffffff19166020820180517bffffffffffffffffffffffffffffffffffffffffffffffffffffffff83818316178352505050506121be565b505050565b600073ffffffffffffffffffffffffffffffffffffffff168273ffffffffffffffffffffffffffffffffffffffff161415612056576040517f08c379a000000000000000000000000000000000000000000000000000000000815260040161204d90613393565b60405180910390fd5b612062826000836121b4565b60008060008473ffffffffffffffffffffffffffffffffffffffff1673ffffffffffffffffffffffffffffffffffffffff168152602001908152602001600020549050818110156120e8576040517f08c379a00000000000000000000000000000000000000000000000000000000081526004016120df90613425565b60405180910390fd5b8181036000808573ffffffffffffffffffffffffffffffffffffffff1673ffffffffffffffffffffffffffffffffffffffff1681526020019081526020016000208190555081600260008282540392505081905550600073ffffffffffffffffffffffffffffffffffffffff168373ffffffffffffffffffffffffffffffffffffffff167fddf252ad1be2c89b69c2b068fc378daa952ba7f163c4a11628f55a4df523b3ef8460405161219b9190612516565b60405180910390a36121af836000846121b9565b505050565b505050565b505050565b6000612220826040518060400160405280602081526020017f5361666545524332303a206c6f772d6c6576656c2063616c6c206661696c65648152508573ffffffffffffffffffffffffffffffffffffffff166122859092919063ffffffff16565b90506000815111156122805780806020019051810190612240919061345a565b61227f576040517f08c379a0000000000000000000000000000000000000000000000000000000008152600401612276906134f9565b60405180910390fd5b5b505050565b6060612294848460008561229d565b90509392505050565b6060824710156122e2576040517f08c379a00000000000000000000000000000000000000000000000000000000081526004016122d99061358b565b60405180910390fd5b6000808673ffffffffffffffffffffffffffffffffffffffff16858760405161230b91906135f2565b60006040518083038185875af1925050503d8060008114612348576040519150601f19603f3d011682016040523d82523d6000602084013e61234d565b606091505b509150915061235e8783838761236a565b92505050949350505050565b606083156123cd576000835114156123c557612385856123e0565b6123c4576040517f08c379a00000000000000000000000000000000000000000000000000000000081526004016123bb90613655565b60405180910390fd5b5b8290506123d8565b6123d78383612403565b5b949350505050565b6000808273ffffffffffffffffffffffffffffffffffffffff163b119050919050565b6000825111156124165781518083602001fd5b806040517f08c379a000000000000000000000000000000000000000000000000000000000815260040161244a91906125ca565b60405180910390fd5b604051806040016040528060008152602001600081525090565b600080fd5b600073ffffffffffffffffffffffffffffffffffffffff82169050919050565b600061249d82612472565b9050919050565b6124ad81612492565b81146124b857600080fd5b50565b6000813590506124ca816124a4565b92915050565b6000602082840312156124e6576124e561246d565b5b60006124f4848285016124bb565b91505092915050565b6000819050919050565b612510816124fd565b82525050565b600060208201905061252b6000830184612507565b92915050565b600081519050919050565b600082825260208201905092915050565b60005b8381101561256b578082015181840152602081019050612550565b8381111561257a576000848401525b50505050565b6000601f19601f8301169050919050565b600061259c82612531565b6125a6818561253c565b93506125b681856020860161254d565b6125bf81612580565b840191505092915050565b600060208201905081810360008301526125e48184612591565b905092915050565b6125f5816124fd565b811461260057600080fd5b50565b600081359050612612816125ec565b92915050565b6000806040838503121561262f5761262e61246d565b5b600061263d858286016124bb565b925050602061264e85828601612603565b9150509250929050565b60008115159050919050565b61266d81612658565b82525050565b60006020820190506126886000830184612664565b92915050565b6000806000606084860312156126a7576126a661246d565b5b60006126b5868287016124bb565b93505060206126c6868287016124bb565b92505060406126d786828701612603565b9150509250925092565b6000602082840312156126f7576126f661246d565b5b600061270584828501612603565b91505092915050565b600060ff82169050919050565b6127248161270e565b82525050565b600060208201905061273f600083018461271b565b92915050565b600060408201905061275a6000830185612507565b6127676020830184612507565b9392505050565b600081519050919050565b600082825260208201905092915050565b6000819050602082019050919050565b6127a381612492565b82525050565b60006127b5838361279a565b60208301905092915050565b6000602082019050919050565b60006127d98261276e565b6127e38185612779565b93506127ee8361278a565b8060005b8381101561281f57815161280688826127a9565b9750612811836127c1565b9250506001810190506127f2565b5085935050505092915050565b6000602082019050818103600083015261284681846127ce565b905092915050565b612857816124fd565b82525050565b604082016000820151612873600085018261284e565b506020820151612886602085018261284e565b50505050565b60006040820190506128a1600083018461285d565b92915050565b6128b081612492565b82525050565b60006020820190506128cb60008301846128a7565b92915050565b600080604083850312156128e8576128e761246d565b5b60006128f6858286016124bb565b9250506020612907858286016124bb565b9150509250929050565b61291a81612658565b811461292557600080fd5b50565b60008135905061293781612911565b92915050565b600080604083850312156129545761295361246d565b5b6000612962858286016124bb565b925050602061297385828601612928565b9150509250929050565b7f4e487b7100000000000000000000000000000000000000000000000000000000600052601160045260246000fd5b60006129b7826124fd565b91506129c2836124fd565b9250827fffffffffffffffffffffffffffffffffffffffffffffffffffffffffffffffff038211156129f7576129f661297d565b5b828201905092915050565b6000612a0d826124fd565b91507fffffffffffffffffffffffffffffffffffffffffffffffffffffffffffffffff821415612a4057612a3f61297d565b5b600182019050919050565b6000612a56826124fd565b91506000821415612a6a57612a6961297d565b5b600182039050919050565b7f4e487b7100000000000000000000000000000000000000000000000000000000600052602260045260246000fd5b60006002820490506001821680612abc57607f821691505b60208210811415612ad057612acf612a75565b5b50919050565b7f54494d454c4f434b57414c4c45543a204e6f742072656769737465726564207460008201527f6f6b656e00000000000000000000000000000000000000000000000000000000602082015250565b6000612b3260248361253c565b9150612b3d82612ad6565b604082019050919050565b60006020820190508181036000830152612b6181612b25565b9050919050565b6000606082019050612b7d60008301866128a7565b612b8a60208301856128a7565b612b976040830184612507565b949350505050565b600081519050612bae816125ec565b92915050565b600060208284031215612bca57612bc961246d565b5b6000612bd884828501612b9f565b91505092915050565b6000608082019050612bf660008301876128a7565b612c0360208301866128a7565b612c1060408301856128a7565b612c1d6060830184612507565b95945050505050565b7f45524332303a2064656372656173656420616c6c6f77616e63652062656c6f7760008201527f207a65726f000000000000000000000000000000000000000000000000000000602082015250565b6000612c8260258361253c565b9150612c8d82612c26565b604082019050919050565b60006020820190508181036000830152612cb181612c75565b9050919050565b6000612cc3826124fd565b9150612cce836124fd565b925082821015612ce157612ce061297d565b5b828203905092915050565b7f4e487b7100000000000000000000000000000000000000000000000000000000600052603260045260246000fd5b7f4e487b7100000000000000000000000000000000000000000000000000000000600052603160045260246000fd5b7f4f776e61626c653a206e6577206f776e657220697320746865207a65726f206160008201527f6464726573730000000000000000000000000000000000000000000000000000602082015250565b6000612da660268361253c565b9150612db182612d4a565b604082019050919050565b60006020820190508181036000830152612dd581612d99565b9050919050565b7f216d616e61676572000000000000000000000000000000000000000000000000600082015250565b6000612e1260088361253c565b9150612e1d82612ddc565b602082019050919050565b60006020820190508181036000830152612e4181612e05565b9050919050565b7f54494d454c4f434b57414c4c45543a205769746864726177206c696d6974617460008201527f696f6e2065786365656473000000000000000000000000000000000000000000602082015250565b6000612ea4602b8361253c565b9150612eaf82612e48565b604082019050919050565b60006020820190508181036000830152612ed381612e97565b9050919050565b7f45524332303a20617070726f76652066726f6d20746865207a65726f2061646460008201527f7265737300000000000000000000000000000000000000000000000000000000602082015250565b6000612f3660248361253c565b9150612f4182612eda565b604082019050919050565b60006020820190508181036000830152612f6581612f29565b9050919050565b7f45524332303a20617070726f766520746f20746865207a65726f20616464726560008201527f7373000000000000000000000000000000000000000000000000000000000000602082015250565b6000612fc860228361253c565b9150612fd382612f6c565b604082019050919050565b60006020820190508181036000830152612ff781612fbb565b9050919050565b7f45524332303a20696e73756666696369656e7420616c6c6f77616e6365000000600082015250565b6000613034601d8361253c565b915061303f82612ffe565b602082019050919050565b6000602082019050818103600083015261306381613027565b9050919050565b7f45524332303a207472616e736665722066726f6d20746865207a65726f20616460008201527f6472657373000000000000000000000000000000000000000000000000000000602082015250565b60006130c660258361253c565b91506130d18261306a565b604082019050919050565b600060208201905081810360008301526130f5816130b9565b9050919050565b7f45524332303a207472616e7366657220746f20746865207a65726f206164647260008201527f6573730000000000000000000000000000000000000000000000000000000000602082015250565b600061315860238361253c565b9150613163826130fc565b604082019050919050565b600060208201905081810360008301526131878161314b565b9050919050565b7f45524332303a207472616e7366657220616d6f756e742065786365656473206260008201527f616c616e63650000000000000000000000000000000000000000000000000000602082015250565b60006131ea60268361253c565b91506131f58261318e565b604082019050919050565b60006020820190508181036000830152613219816131dd565b9050919050565b7f4f776e61626c653a2063616c6c6572206973206e6f7420746865206f776e6572600082015250565b600061325660208361253c565b915061326182613220565b602082019050919050565b6000602082019050818103600083015261328581613249565b9050919050565b7f45524332303a206d696e7420746f20746865207a65726f206164647265737300600082015250565b60006132c2601f8361253c565b91506132cd8261328c565b602082019050919050565b600060208201905081810360008301526132f1816132b5565b9050919050565b600060408201905061330d60008301856128a7565b61331a6020830184612507565b9392505050565b7f45524332303a206275726e2066726f6d20746865207a65726f2061646472657360008201527f7300000000000000000000000000000000000000000000000000000000000000602082015250565b600061337d60218361253c565b915061338882613321565b604082019050919050565b600060208201905081810360008301526133ac81613370565b9050919050565b7f45524332303a206275726e20616d6f756e7420657863656564732062616c616e60008201527f6365000000000000000000000000000000000000000000000000000000000000602082015250565b600061340f60228361253c565b915061341a826133b3565b604082019050919050565b6000602082019050818103600083015261343e81613402565b9050919050565b60008151905061345481612911565b92915050565b6000602082840312156134705761346f61246d565b5b600061347e84828501613445565b91505092915050565b7f5361666545524332303a204552433230206f7065726174696f6e20646964206e60008201527f6f74207375636365656400000000000000000000000000000000000000000000602082015250565b60006134e3602a8361253c565b91506134ee82613487565b604082019050919050565b60006020820190508181036000830152613512816134d6565b9050919050565b7f416464726573733a20696e73756666696369656e742062616c616e636520666f60008201527f722063616c6c0000000000000000000000000000000000000000000000000000602082015250565b600061357560268361253c565b915061358082613519565b604082019050919050565b600060208201905081810360008301526135a481613568565b9050919050565b600081519050919050565b600081905092915050565b60006135cc826135ab565b6135d681856135b6565b93506135e681856020860161254d565b80840191505092915050565b60006135fe82846135c1565b915081905092915050565b7f416464726573733a2063616c6c20746f206e6f6e2d636f6e7472616374000000600082015250565b600061363f601d8361253c565b915061364a82613609565b602082019050919050565b6000602082019050818103600083015261366e81613632565b905091905056fea264697066735822122041f2742954fa06cf137f9ceeb073742f5a043a73109732d157b9b4c5806b1bf564736f6c634300080b0033",
  "immutableReferences": {},
  "source": "// SPDX-License-Identifier: MIT\npragma solidity >=0.8.9 <0.9.0;\n\nimport \"@openzeppelin/contracts/token/ERC20/ERC20.sol\";\nimport \"@openzeppelin/contracts/token/ERC20/utils/SafeERC20.sol\";\nimport \"@openzeppelin/contracts/access/Ownable.sol\";\n\ncontract Timelockwallet is ERC20, Ownable {\n  using SafeERC20 for IERC20;\n\n  struct ManagerObj {\n    uint256 index;\n    bool exist;\n  }\n\n  struct WithdrawObj {\n    uint256 amount;\n    uint256 createdAt;\n  }\n\n  mapping (address => ManagerObj) private _manageAccess;\n  address[] private _manager;\n\n  address[] public availableTokenLists;\n\n  uint256 public withdrawDuration;\n  uint256 public withdrawLimitation;\n  mapping(address => mapping(uint256 => WithdrawObj)) public withdrawLists;\n  mapping(address => uint256) public withdrawListIndex;\n\n  event Deposit(address _token, address _account, uint256 _amount);\n  event Withdraw(address _token, address _account, uint256 _amount);\n  event RemoveLiquidity(address _operator, address _token, address _account, uint256 _amount);\n\n  modifier onlyManager() {\n    require(_manageAccess[msg.sender].exist, \"!manager\");\n    _;\n  }\n\n  constructor (string memory _name, string memory  _symbol) \n    ERC20(_name, _symbol)\n  {\n    withdrawDuration = 24 * 3600;\n    withdrawLimitation = 100e18;\n\n    availableTokenLists.push(0xe9e7CEA3DedcA5984780Bafc599bD69ADd087D56); // BUSD\n    availableTokenLists.push(0x55d398326f99059fF775485246999027B3197955); // USDT\n    availableTokenLists.push(0x8AC76a51cc950d9822D68b83fE1Ad97B32Cd580d); // USDC\n    availableTokenLists.push(0x1AF3F329e8BE154074D8769D1FFa4eE058B1DBc3); // DAI\n  }\n\n  function getAllManager() public view returns(address[] memory) {\n    return _manager;\n  }\n\n  function setManager(address usraddress, bool access) public onlyOwner {\n    if (access == true) {\n      if ( ! _manageAccess[usraddress].exist) {\n        uint256 newId = _manager.length;\n        _manageAccess[usraddress] = ManagerObj(newId, true);\n        _manager.push(usraddress);\n      }\n    }\n    else {\n      if (_manageAccess[usraddress].exist) {\n        address lastObj = _manager[_manager.length - 1];\n        _manager[_manageAccess[usraddress].index] = _manager[_manageAccess[lastObj].index];\n        _manager.pop();\n        delete _manageAccess[usraddress];\n      }\n    }\n  }\n\n  function setWithdrawDuration(uint256 _withdrawDuration) public onlyOwner {\n    withdrawDuration = _withdrawDuration;\n  }\n\n  function setWithdrawLimitation(uint256 _withdrawLimitation) public onlyOwner {\n    withdrawLimitation = _withdrawLimitation;\n  }\n\n  function removeLiquidity(address _token, address _account) public onlyOwner {\n    require(_availableToken(_token), \"TIMELOCKWALLET: Not registered token\");\n    uint256 _balance = IERC20(_token).balanceOf(address(this));\n    IERC20(_token).safeTransfer(_account, _balance);\n    emit RemoveLiquidity(msg.sender, _token, _account, _balance);\n  }\n\n  function deposit(address _token, uint256 _amount) public {\n    require(_availableToken(_token), \"TIMELOCKWALLET: Not registered token\");\n    IERC20(_token).safeTransferFrom(msg.sender, address(this), _amount);\n    _mint(msg.sender, _amount);\n    emit Deposit(_token, msg.sender, _amount);\n  }\n\n  function withdraw(address _token, uint256 _amount) public onlyManager {\n    require(_availableToken(_token), \"TIMELOCKWALLET: Not registered token\");\n    uint256 _prevSum = 0;\n    uint256 _now = block.timestamp;\n    uint256 _len = withdrawListIndex[msg.sender];\n    for (uint256 i=_len; i>0; i--) {\n      if (withdrawLists[msg.sender][i].createdAt + withdrawDuration > _now) {\n        _prevSum += withdrawLists[msg.sender][i].amount;\n      }\n    }\n    require(_prevSum < withdrawLimitation && _prevSum+_amount <= withdrawLimitation, \"TIMELOCKWALLET: Withdraw limitation exceeds\");\n    _burn(msg.sender, _amount);\n    IERC20(_token).safeTransfer(msg.sender, _amount);\n    withdrawLists[msg.sender][_len+1] = WithdrawObj(_amount, _now);\n    withdrawListIndex[msg.sender] = withdrawListIndex[msg.sender] + 1;\n    emit Withdraw(_token, msg.sender, _amount);\n  }\n\n  function getRecentWithdrawLength(address _account) public view returns(uint256) {\n    uint256 _now = block.timestamp;\n    uint256 j = 0;\n    uint256 _len = withdrawListIndex[msg.sender];\n    for (uint256 i=_len; i>0; i--) {\n      if (withdrawLists[_account][i].createdAt + withdrawDuration > _now) {\n        j ++;\n      }\n    }\n    return j;\n  }\n\n  function getWithdrawLength(address _account) public view returns(uint256) {\n    return withdrawListIndex[_account];\n  }\n\n  function getWithdrawInfo(address _account, uint256 _index) public view returns(WithdrawObj memory) {\n    return withdrawLists[_account][_index];\n  }\n\n  function _availableToken(address _token) internal view returns(bool) {\n    uint256 _len = availableTokenLists.length;\n    for (uint256 i=0; i<_len; i++) {\n      if (availableTokenLists[i] == _token) {\n        return true;\n      }\n    }\n    return false;\n  }\n}",
  "sourcePath": "D:\\HGG\\Workshop\\timelockwallet\\sc\\contracts\\Timelockwallet.sol",
  "compiler": {
    "name": "solc",
    "version": "0.8.11+commit.d7f03943.Emscripten.clang"
  },
  "schemaVersion": "3.4.4",
  "updatedAt": "2022-11-17T02:39:12.380Z",
  "networkType": "ethereum",
  "devdoc": {
    "kind": "dev",
    "methods": {
      "allowance(address,address)": {
        "details": "See {IERC20-allowance}."
      },
      "approve(address,uint256)": {
        "details": "See {IERC20-approve}. NOTE: If `amount` is the maximum `uint256`, the allowance is not updated on `transferFrom`. This is semantically equivalent to an infinite approval. Requirements: - `spender` cannot be the zero address."
      },
      "balanceOf(address)": {
        "details": "See {IERC20-balanceOf}."
      },
      "decimals()": {
        "details": "Returns the number of decimals used to get its user representation. For example, if `decimals` equals `2`, a balance of `505` tokens should be displayed to a user as `5.05` (`505 / 10 ** 2`). Tokens usually opt for a value of 18, imitating the relationship between Ether and Wei. This is the value {ERC20} uses, unless this function is overridden; NOTE: This information is only used for _display_ purposes: it in no way affects any of the arithmetic of the contract, including {IERC20-balanceOf} and {IERC20-transfer}."
      },
      "decreaseAllowance(address,uint256)": {
        "details": "Atomically decreases the allowance granted to `spender` by the caller. This is an alternative to {approve} that can be used as a mitigation for problems described in {IERC20-approve}. Emits an {Approval} event indicating the updated allowance. Requirements: - `spender` cannot be the zero address. - `spender` must have allowance for the caller of at least `subtractedValue`."
      },
      "increaseAllowance(address,uint256)": {
        "details": "Atomically increases the allowance granted to `spender` by the caller. This is an alternative to {approve} that can be used as a mitigation for problems described in {IERC20-approve}. Emits an {Approval} event indicating the updated allowance. Requirements: - `spender` cannot be the zero address."
      },
      "name()": {
        "details": "Returns the name of the token."
      },
      "owner()": {
        "details": "Returns the address of the current owner."
      },
      "renounceOwnership()": {
        "details": "Leaves the contract without owner. It will not be possible to call `onlyOwner` functions anymore. Can only be called by the current owner. NOTE: Renouncing ownership will leave the contract without an owner, thereby removing any functionality that is only available to the owner."
      },
      "symbol()": {
        "details": "Returns the symbol of the token, usually a shorter version of the name."
      },
      "totalSupply()": {
        "details": "See {IERC20-totalSupply}."
      },
      "transfer(address,uint256)": {
        "details": "See {IERC20-transfer}. Requirements: - `to` cannot be the zero address. - the caller must have a balance of at least `amount`."
      },
      "transferFrom(address,address,uint256)": {
        "details": "See {IERC20-transferFrom}. Emits an {Approval} event indicating the updated allowance. This is not required by the EIP. See the note at the beginning of {ERC20}. NOTE: Does not update the allowance if the current allowance is the maximum `uint256`. Requirements: - `from` and `to` cannot be the zero address. - `from` must have a balance of at least `amount`. - the caller must have allowance for ``from``'s tokens of at least `amount`."
      },
      "transferOwnership(address)": {
        "details": "Transfers ownership of the contract to a new account (`newOwner`). Can only be called by the current owner."
      }
    },
    "version": 1
  },
  "userdoc": {
    "kind": "user",
    "methods": {},
    "version": 1
  }
}